:100000000C943B000C948A000C9458000C945800FB
:100010000C9458000C9458000C9458000C94580000
:100020000C9458000C9458000C9458000C94CD007B
:100030000C9458000C9458000C9458000C945800E0
:100040000C9458000C9458000C9458000C945800D0
:100050000C9458000C949F000C9458000C94580079
:100060000C9458000C9458006D00700074007600D9
:100070007B007F00850011241FBECFEFD8E0DEBFDC
:10008000CDBF11E0A0E0B1E0E4EBF3E002C00590E9
:100090000D92AE37B107D9F721E0AEE7B1E001C06C
:1000A0001D92A838B207E1F70E9495010C94D8017F
:1000B0000C9400002B9A0895299A08955E9A089549
:1000C000082E000C990BAA0BBB0B8730910508F585
:1000D000FC01EC5CFF4F0C94D2010E945E0001C059
:1000E0005E980E945C0005C05E9802C00E945E009F
:1000F00029980C945A000E945E00299804C00E941E
:100100005E000E945C002B9808952B980E945C0072
:100110005E9808951F920F920FB60F9211248F933D
:10012000EF93FF93EAE7F0E0808180648083FF91A2
:10013000EF918F910F900FBE0F901F9018951F9207
:100140000F920FB60F9211242F935F936F937F93AB
:100150008F939F93AF93BF932091790080E091E0BC
:10016000821B910922E1289FB001299F700D112463
:1001700080E496E00E94BE01709302016093010149
:10018000BF91AF919F918F917F916F915F912F91CF
:100190000F900FBE0F901F9018951F920F920FB6E1
:1001A0000F9211242F933F934F935F936F937F93FD
:1001B0008F939F93AF93BF93EF93FF9380918601AB
:1001C00090918701009711F5809100010E946000D5
:1001D0008091840190918501ECE3F0E0E81BF90B3C
:1001E000EE0FFF1FED5FFE4F408151812091010115
:1001F00030910201429FC001439F900D529F900D8C
:100200001124909383018093820125C08130910550
:1002100081F580910001863011F481E001C08F5F8B
:100220000E946000E0918401F0918501EE0FFF1FB4
:10023000ED5FFE4F4081518120910101309102011B
:10024000429FC001439F900D529F900D11249093A7
:100250008101809380019093890080938800809130
:100260008601909187010196909387018093860182
:1002700032C0029781F50E945E000E945C000E94DD
:100280005A00409101015091020120E137E2429F62
:10029000C001439F900D529F900D11242091820127
:1002A00030918301821B930B209180013091810159
:1002B000821B930B90938900809388001092870192
:1002C0001092860180917E0190917F01019690931A
:1002D0007F0180937E0180917E0190917F014CE3AC
:1002E000489F9001499F300D1124C9016CE370E0D3
:1002F0000E94BE0190938501809384012C333105C7
:1003000018F082E080930001FF91EF91BF91AF91CF
:100310009F918F917F916F915F914F913F912F911D
:100320000F900FBE0F901F901895569A219A239AFE
:100330001092800082E080936F0080910101909183
:100340000201909389008093880080917C008066F0
:1003500080937C008FEC80937A00809169008260AA
:1003600080936900E89A78940E945E000E945C0085
:100370000E945A008DE080938100FFCFAA1BBB1B17
:1003800051E107C0AA1FBB1FA617B70710F0A61B95
:10039000B70B881F991F5A95A9F780959095BC01B6
:1003A000CD010895EE0FFF1F0590F491E02D099403
:0403B000F894FFCFEF
:1003B40001841E0000AF005D010B02BA0268031540
:1003C40004C30470051C06C80674071F08CA087312
:1003D400091C0AC40A6C0B120CB80C5C0D000EA2AA
:1003E4000E430FE30F82102011BC115712F0128834
:1003F400131E14B3144615D8156816F61682170D75
:100404001895181C19A119231AA41A231B9F1B1928
:100414001C921C071D7B1DEC1D5B1EC81E321F9AFF
:0E0424001F00206220C32020217C21D4210053
:00000001FF
